:020000040000FA
:060000000A128A11122809
:10000800FE00030E83120313A2000408A3000A08CB
:10001800A4007F08A5000A128A11162F0A128A1155
:1000280015288313A930FD000730FE00F730FF00C4
:10003800A03084000A128A11D8270A128A116A305D
:10004800FD000F30FE00C830FF005F3084000A1248
:100058008A11D8270A128A114E3084005F300A129A
:100068008A15A5270A128A1183010A128A11BB2B45
:10007800013083120313A000560A44280310A00D70
:10008800FF3E031D422820080605031D4C284D2865
:10009800532856080319512852285328E028D60116
:1000A8008619572858286B285C08031D5C285D288A
:1000B80062280230FF007F08DE0066280130FF005A
:1000C8007F08DE000330FF007F08D600E028061A0C
:1000D8006E286F28A7285C03031D73287428A0289E
:1000E8006903031D782879287F280230FF007F08DC
:1000F800E900D301A02802306906031D8428852859
:10010800A0286808053EA000003003180130A100AF
:100118002108803AFF0080307F02031D95284C306B
:100128002002031898289928A0280530FF007F0886
:1001380083120313E8077D280430FF007F08831229
:100148000313D600E028861AAA28AB28E0285C0307
:10015800031DAF28B028DA286903031DB428B52881
:10016800BB280230FF007F08E900D301DA280230FB
:100178006906031DC028C128DA286808FB3EA000CC
:10018800FF3003180030A1002108803AFF008030BA
:100198007F02031DD12823302002031CD428D52830
:1001A800DA28053083120313E802B9280530FF0066
:1001B8007F0883120313D6000130FF007F08D3079E
:1001C800FA305302031CE928EA28FE28023069069F
:1001D800031DEF28F028FE280130FF007F08E90002
:1001E8005C03031DF828F928FD280130FF007F086B
:1001F800DD00D3015C03031D0229032920295D03C7
:10020800031D0729082920296903031D0C290D2925
:10021800142965080A128A114E270A128A11202900
:1002280002306906031D19291A29202968080A12AB
:100238008A114E270A128A110130FF007F088312A3
:100248000313D5071E305502031C2B292C294129DD
:1002580002306906031D3129322941295408031D3A
:10026800362937293B29DD01D401D40A4029013038
:10027800FF007F08DD00D401D5010130FF007F08B1
:10028800D80703305806031D4A294B2953290A1257
:100298008A1592270A128A1183120313D8010800BB
:1002A800831203131E08F800831603131E08F700B1
:1002B8000310F80CF70C770883120313CE07031802
:1002C800CF0A7808CF070130FF007F08D2070A302D
:1002D8005206031D7029712987290A30F000003061
:1002E800F1004F08F3004E08F2000A128A11932613
:1002F8000A128A11710883120313E6007008E500D8
:10030800D201CE01CF015C03031D8B298C29652AFC
:100318006808F700F80178086602031D9529770830
:100328006502031898299929BC296808F700650807
:100338007702F80066090318013EF90000307902D7
:10034800063003197802031CAA29AB29BC295B08CB
:10035800031DAF29B029BC295A08031DB429B529A2
:10036800BC2987160130FF007F08DB00D1013B2A3A
:100378006808F700F80166087802031DC5296508B2
:1003880077020318C829C929E9296608F800680806
:100398006502F700031CF8030030780206300319E1
:1003A8007702031CD829D929E9295A08031DDD2910
:1003B800DE29E9295B08031DE229E329E929071554
:1003C8000130FF007F08DA003B2A6808F700F801CF
:1003D80066087802031DF229650877020318F529D3
:1003E800F629112A6608F80068086502F700031C58
:1003F800F80300307802063003197702031C052A37
:10040800062A112A5B03031D0A2A0B2A112ADF3048
:10041800FF007F088705DB013B2A6808F700F80121
:1004280078086602031D1A2A7708650203181D2A30
:100438001E2A3B2A6808F70065087702F800660953
:100448000318013EF90000307902063003197802DA
:10045800031C2F2A302A3B2A5A03031D342A352A23
:100468003B2AFB30FF007F088705DA013B2A5B0344
:10047800031D3F2A402A5A2A0130FF007F08D1076E
:100488000A305102031C492A4A2A652A5008031DCA
:100498004E2A4F2A532A8617D001D00A582A7F306D
:1004A800FF007F088605D001D101652A5A03031D84
:1004B8005E2A5F2A612A8617652A7F30FF007F0837
:1004C8008605080083120313B800380884000F302B
:1004D800831300060319712A722A9A2A380884009D
:1004E8000E3000060319792A7A2A9A2A38088400D5
:1004F8000B3000060319812A822A9A2A38088400B8
:10050800083000060319892A8A2A9A2A380884009A
:10051800073000060319912A922A9A2A380884007B
:1005280006300006031D992A9A2A232B3808043E10
:1005380084000008B400840A0008B500840A000892
:10054800B600840A0008B7003708031DBA2A0F301E
:100558003602031DB72A42303502031DB72A41303F
:100568003402031DB72A0318BA2ABB2A232B380AD8
:10057800840080300002031CC22AC32AC42A232B09
:100588003808083E840000080319CB2ACC2AD32A4D
:10059800F730FF007F088C05831603138C15831230
:1005A8003808840008300006031DDB2ADC2AFF2AED
:1005B8003808043E84000008A600840A0008A70042
:1005C800840A0008A800840A0008A9000030AD00C9
:1005D8001E30AC008430AB008030AA000A128A11A9
:1005E80027250A128A11831203132608FF3E831651
:1005F80003139300152B380884000E3000060319E6
:10060800062B072B0F2B3808840006300006031D25
:100618000E2B0F2B152B380A8400000883160313A2
:10062800930083160313871507169101940183120B
:100638000313380884008313000820389400080046
:1006480083120313AA002A08033E84000830831388
:1006580000020318302B312BBA2B2A0884000730EC
:1006680000020318382B392BBA2B2A08023E8400C3
:10067800023000020318412B422BBA2B2A0A8400AD
:1006880010300002031C492B4A2B4B2BBA2B2A0A89
:1006980084000008A6002A0884000008A700023089
:1006A8000310A70CFF3E031D542B2708A800063093
:1006B8000310A80DFF3E031D5C2B2A08023E840090
:1006C8000008A90006300310A90DFF3E031D672B83
:1006D8000310290D28042604831603139F00831290
:1006E80003132A08043E8400000803197C2B7D2B81
:1006F800872B0A128A159E270A128A110A128A154E
:1007080096270A128A11831203132A088400831376
:1007180000080439A60006300310A60DFF3E031D8D
:10072800902B2A08033E84000008A700023003101B
:10073800A70DFF3E031D9B2B0310270D2604013830
:100748009F002A08043E840000080319AC2BAD2B37
:10075800BA2B2A08053E840000080319B42BB52BD0
:10076800BA2B0A128A159A270A128A1108000A1245
:100778008A11BE240A128A110230831203135E06FC
:10078800031DC72BC82B0E2C1F140130FF007F0838
:10079800DD000130FF007F08DC000130FF007F082A
:1007A800E90012150030A700A8000A128A114F2488
:1007B8000A128A11831203132708FF007F08831681
:1007C8000313AB0023302B02031CEB2BEC2BF22B77
:1007D8004C302B02031CF12BF22BF72B3C30A900D9
:1007E8000030AA00062C2B0883120313CC00CD017D
:1007F8004C0883160313A900831203134D088316AC
:100808000313AA002908FF007F0883120313E800D6
:10081800DE014A2C5E03031D122C132C4A2CDD0129
:10082800FB30FF007F089205DF30FF007F08850559
:10083800EF30FF007F088505FE30FF007F089F0529
:100848008C010030A700A80068080A128A11D72670
:100858000A128A11831203135B03031D342C352CEF
:100868003A2CDF30FF007F088705DB015A03031DA0
:100878003E2C3F2C442CFB30FF007F088705DA0113
:100888007F30FF007F088605DC01DE016400C02B95
:100898000A128A11122883120313AC010A128A154C
:1008A800B6270A128A11831203132808AA002708F8
:1008B800A90007300310AA0CA90CFF3E031D5E2CEB
:1008C80029080239A0380A128A11BE270A128A1189
:1008D800FF007F0883120313AC0727080A128A1146
:1008E800BE270A128A11FF007F0883120313AC0780
:1008F8000A128A15AD270A128A11831203132808CF
:10090800AA002708A90007300310AA0CA90CFF3E6B
:10091800031D882C29080239A1380A128A11BE271A
:100928000A128A11FF007F0883120313AC070A1208
:100938008A117F270A128A11FF007F088312031386
:10094800AB000A128A15BF270A128A1183120313F1
:100958002C08031DB02CB12CB92C2B08A900AA0116
:100968002908A7002A08A800BD2CFF30A700FF30DF
:10097800A8000800043083160313810083120313B0
:100988008101053083160313810064003D30840023
:10099800831203135F0883138000840A60088000B1
:1009A800840A61088000840A62088000840A630857
:1009B8008000840A6408800043308400A030B900B5
:1009C8000408BA000930BB00390884008313000802
:1009D800BC00B90A3A0884003C088000BA0ABB0B7C
:1009E800E82CDB30FF007F088705DB30FF007F083D
:1009F800831603138705861506168616FF308500AD
:100A08007F30FF007F0886057F30FF007F08831254
:100A18000313860543300A128A1166220A128A11C4
:100A28003D300A128A1124230A128A110A128A15E1
:100A3800F0270A128A110A128A119F270A128A11AC
:100A48000B178B170800003083120313B200003015
:100A5800B1000030B0000030AF0029082804270496
:100A680026040319382D392D862DB301B30A492DD3
:100A78000130AE000310A60DA70DA80DA90DAE0BF1
:100A88003E2D0130FF007F08B307A91F4C2D4D2DC7
:100A98003C2D0130AE000310AF0DB00DB10DB20DFD
:100AA800AE0B4F2D29082D02031D642D28082C029A
:100AB800031D642D27082B02031D642D26082A0216
:100AC800031C672D682D772D2608AA022708031C0A
:100AD800270FAB022808031C280FAC022908031CA7
:100AE800290FAD022F1401300310A90CA80CA70C74
:100AF800A60CFF3E031D782D0130B302031D852D82
:100B0800862D4D2D3208A9003108A8003008A7000D
:100B18002F08A6000800F501F11F932D942D9B2D99
:100B2800F009F109F00A0319F10AF501F50AF31FB2
:100B38009E2D9F2DA82DF209F309F20A0319F30A35
:100B48000130FF007F08F506F601F701700871040F
:100B58000319AF2DB02DE72DF401F40ABE2D013095
:100B68000310F00DF10DFF3E031DB42D0130FF0001
:100B78007F08F407F11FC12DC22DB32D01300310DA
:100B8800F60DF70DFF3E031DC32D71087302031DFB
:100B9800CF2D70087202031CD22DD32DDA2D7008C8
:100BA800F2027108031CF303F302761401300310F8
:100BB800F10CF00CFF3E031DDB2D0130F402031D88
:100BC800E62DE72DC22D75080319EB2DEC2DF12D1F
:100BD800F609F709F60A0319F70A7708F100760803
:100BE800F0000800F501F31FFA2DFB2D022EF20983
:100BF800F309F20A0319F30AF501F50AF11F052EA4
:100C0800062E0B2EF009F109F00A0319F10A7008F3
:100C180071040319102E112E402EF401F40A1F2E10
:100C280001300310F00DF10DFF3E031D152E0130AC
:100C3800FF007F08F407F11F222E232E142E7108BF
:100C48007302031D292E70087202031C2C2E2D2EF0
:100C5800332E7008F2027108031CF303F30201300B
:100C68000310F10CF00CFF3E031D342E0130F4028A
:100C7800031D3F2E402E232E75080319442E452EA2
:100C88004A2EF209F309F20A0319F30A7308F1006C
:100C98007208F0000800831203135D03031D552E2C
:100CA800562E8A2E5C03031D5A2E5B2E8A2E590857
:100CB800031D5F2E602E722E8516EF30FF007F0811
:100CC800850567080F39013E84000A128A11E72753
:100CD8000A128A118800D901D90A922EDF30FF0042
:100CE8007F08850505166708F00004300310F00C2E
:100CF800FF3E031D7A2E7008013E84000A128A11F5
:100D0800E7270A128A118800D901922EDF30FF00E6
:100D18007F088505EF30FF007F0885050800F4018E
:100D2800F5017008710403199A2E9B2ED22EF60134
:100D3800F60AA92E01300310F00DF10DFF3E031D38
:100D48009F2E0130FF007F08F607F11FAC2EAD2E55
:100D58009E2E01300310F40DF50DFF3E031DAE2E3F
:100D680071087302031DBA2E70087202031CBD2E8F
:100D7800BE2EC52E7008F2027108031CF303F3029D
:100D8800741401300310F10CF00CFF3E031DC62E45
:100D98000130F602031DD12ED22EAD2E7508F100BA
:100DA8007408F000080083120313AB00AC010A12A8
:100DB8008A15B6270A128A11831203132808AA0073
:100DC8002708A90007300310AA0CA90CFF3E031D31
:100DD800E72E29080239A0380A128A11BE270A12FA
:100DE8008A11FF007F0883120313AC0727080A1231
:100DF8008A11BE270A128A11FF007F088312031383
:100E0800AC072B080A128A11BE270A128A11FF00A2
:100E18007F0883120313AC070A128A15BF270A1228
:100E28008A1108008C1C192F1A2F262F0A128A11D2
:100E38004F260A128A11FD30FF007F088312031320
:100E48008C05412F0C1C292F2A2F342FFE30FF0030
:100E58007F088C050A128A113C200A128A11412F38
:100E68000C1F372F382F412FBF30FF007F088C050C
:100E78000A128A1154210A128A11831203132508AF
:100E8800FF0024088A0023088400220E8300FE0E37
:100E98007E0E0900FD000A30F0000030F1007D08E8
:100EA800F800F9017808F2007908F3000A128A11AB
:100EB8008F250A128A117008FA0004300310FA0DFF
:100EC800FF3E031D622F0A30F0000030F1007D085C
:100ED800FB00FC017B08F2007C08F3000A128A116F
:100EE800F6250A128A1170087A04FF007F08831217
:100EF8000313E70008000A128A15D3270A128A1179
:100F08008316031391150A128A15D3270A128A1118
:100F1800831203131308FF007F08A6000A128A151C
:100F2800D3270A128A1183160313911611168312F6
:100F3800031326080800831603138801DF30FF0017
:100F48007F088505EF30FF007F088505FB30FF002F
:100F58007F08831203139205DF30FF007F088505A1
:100F6800EF30FF007F0885050A128A15E0270A126C
:100F78008A11080083120313A6000A128A15D327C0
:100F88000A128A1183120313260893008316031387
:100F9800111FCF2FD02FD22F0130D32F00300800B0
:100FA8007E088A007F0882000A128A11D4270A1252
:100FB8008A118000840A04087D0603190034FF0A98
:100FC8000319FE0AD82F07308A000408840A82070A
:100FD80000343F3406345B344F3466346D347D342A
:100FE80007347F346F340834003400340034A034BC
:080FF80086340134003400349A
:101F2400831203131F150800831603130C170800EC
:101F3400831203131F150800BF30FF007F088312AC
:101F440003138C05080064008001840A0406031945
:101F540000340406A62F0A128A15D3270A128A15FA
:101F640083160313911408000A128A15D3270A1240
:101F74008A1583160313111408000A128A15D3272D
:101F84000A128A1583160313111508000234023449
:101F940001340234013400342334003460343C34DA
:101FA4000134831603131419D82FD92FD32F1108F2
:101FB4001F39031DDE2FDF2FD32F0800FD30FF0054
:101FC4007F08831203138C05831603138C14FF30CC
:101FD400920027308312031392000800FE30FF00A2
:101FE4007F08831203138C05831603130C148312C6
:0C1FF40003138E018F010D3090000800D7
:02400E007E3FF3
:00000001FF
