:020000040000FA
:060000000A128A11122809
:10000800FE00030E83120313A2000408A3000A08CB
:10001800A4007F08A5000A128A11312F0A128A113A
:1000280015288313A930FD000F30FE00AC30FF0007
:10003800A03084000A128A15F1270A128A11693041
:10004800FD000F30FE00B530FF005E3084000A125C
:100058008A15F1270A128A114C3084005E300A1280
:100068008A1589270A128A1183010A128A11342BE8
:10007800013083120313A000550A44280310A00D71
:10008800FF3E031D422820080605031D4C284D2865
:10009800532855080319512852285328E828D50110
:1000A8008619572858286B285B08031D5C285D288B
:1000B80062280230FF007F08DD0066280130FF005B
:1000C8007F08DD000330FF007F08D500E828061A06
:1000D8006E286F28AB285B03031D73287428A42897
:1000E8006803031D7828792883280230FF007F08D9
:1000F800E800D2016708FF007F08D100A428023079
:100108006806031D88288928A4286708053EA000DA
:10011800003003180130A1002108803AFF00803028
:100128007F02031D99284C30200203189C289D2823
:10013800A4280530FF007F0883120313D107D201DA
:100148000430FF007F0883120313D500E828861ABD
:10015800AE28AF28E8285B03031DB328B428E2289B
:100168006803031DB828B928C3280230FF007F0898
:10017800E800D2016708FF007F08D100E2280230BA
:100188006806031DC828C928E2286708FB3EA000A6
:10019800FF3003180030A1002108803AFF008030AA
:1001A8007F02031DD92823302002031CDC28DD2808
:1001B800E228053083120313D102D2010530FF0073
:1001C8007F0883120313D5000130FF007F08D20790
:1001D800FA305202031CF128F2280E290230680670
:1001E800031DF728F8280E290130FF007F08E800D2
:1001F8000330FF007F08DD005108FF007F08E7009B
:100208005B03031D082909290D290130FF007F0818
:10021800DC00D2015B03031D1229132930295C037A
:10022800031D1729182930296803031D1C291D29B6
:10023800242964080A128A1169270A128A113029A6
:1002480002306806031D29292A29302951080A1273
:100258008A1169270A128A110130FF007F08831268
:100268000313D4071E305402031C3B293C2951298F
:1002780002306806031D4129422951295308031DEC
:10028800462947294B29DC01D301D30A50290130DB
:10029800FF007F08DC00D301D4010130FF007F0894
:1002A800D70703305706031D5A295B2963290A1209
:1002B8008A1576270A128A1183120313D7010800B8
:1002C800831203131E08F800831603131E08F70091
:1002D8000310F80CF70C770883120313CC070318E4
:1002E800CD0A7808CD070130FF007F08D0070A3013
:1002F8005006031D8029812997290A30F000003013
:10030800F1004D08F3004C08F2000A128A11AE26DB
:100318000A128A11710883120313E5007008E400B9
:10032800D001CC01CD015B03031D9B299C29752AB3
:100338006708F700F80178086502031DA529770802
:1003480064020318A829A929CC296708F7006408BA
:100358007702F80065090318013EF90000307902B8
:10036800063003197802031CBA29BB29CC295A087C
:10037800031DBF29C029CC295908031DC429C52933
:10038800CC2987160130FF007F08DA00CF014B2AFD
:100398006708F700F80165087802031DD529640885
:1003A80077020318D829D929F9296508F8006708B8
:1003B8006402F700031CF8030030780206300319C2
:1003C8007702031CE829E929F9295908031DED29B1
:1003D800EE29F9295A08031DF229F329F9290715E5
:1003E8000130FF007F08D9004B2A6708F700F801A1
:1003F80065087802031D022A640877020318052A93
:10040800062A212A6508F80067086402F700031C19
:10041800F80300307802023003197702031C152A0A
:10042800162A212A5A03031D1A2A1B2A212ADF30D9
:10043800FF007F088705DA014B2A6708F700F801F3
:1004480078086502031D2A2A7708640203182D2AF2
:100458002E2A4B2A6708F70064087702F800650916
:100468000318013EF90000307902023003197802BE
:10047800031C3F2A402A4B2A5903031D442A452AB4
:100488004B2AFB30FF007F088705D9014B2A5A0306
:10049800031D4F2A502A6A2A0130FF007F08CF0720
:1004A8000A304F02031C592A5A2A752A4E08031D7E
:1004B8005E2A5F2A632A8617CE01CE0A682A7F3011
:1004C800FF007F088605CE01CF01752A5903031D59
:1004D8006E2A6F2A712A8617752A7F30FF007F08D7
:1004E8008605080083120313B800380884000F300B
:1004F800831300060319812A822AAA2A380884004D
:100508000E3000060319892A8A2AAA2A3808840084
:100518000B3000060319912A922AAA2A3808840067
:10052800083000060319992A9A2AAA2A380884004A
:10053800073000060319A12AA22AAA2A380884002B
:1005480006300006031DA92AAA2A332B3808043EC0
:1005580084000008B400840A0008B500840A000872
:10056800B600840A0008B7003708031DCA2A0F30EE
:100578003602031DC72A42303502031DC72A4130FF
:100588003402031DC72A0318CA2ACB2A332B380A78
:10059800840080300002031CD22AD32AD42A332BA9
:1005A8003808083E840000080319DB2ADC2AE32AFD
:1005B800F730FF007F088C05831603138C15831210
:1005C8003808840008300006031DEB2AEC2A0F2B9C
:1005D8003808043E84000008A600840A0008A70022
:1005E800840A0008A800840A0008A9000030AD00A9
:1005F8001E30AC008430AB008030AA000A128A1189
:1006080042250A128A11831203132608FF3E831615
:1006180003139300252B380884000E3000060319B5
:10062800162B172B1F2B3808840006300006031DD5
:100638001E2B1F2B252B380A840000088316031352
:1006480093008316031387150716910194018312EB
:100658000313380884008313000820389400080026
:100668000A128A11D9240A128A110230831203133A
:100678005D06031D402B412B812B1F140130FF0009
:100688007F08DC000130FF007F08DB000130FF003D
:100698007F08E80012150030A700A8000A128A1186
:1006A8006A240A128A11831203132708FF007F089D
:1006B80083160313AD0023302D02031C642B652B16
:1006C8006B2B4C302D02031C6A2B6B2B702B3C3090
:1006D800AB000030AC00772B2D08A900AA0129082F
:1006E800AB002A08AC002B08FF007F088312031315
:1006F800E70083120313DD01CE2B5D03031D852B59
:10070800862BBE2BDC01FB30FF007F089205DF3013
:10071800FF007F088505EF30FF007F088505FE3064
:10072800FF007F089F058C010030A700A80067081C
:100738000A128A11F2260A128A11831203135A0323
:10074800031DA72BA82BAD2BDF30FF007F088705E3
:10075800DA015903031DB12BB22BB72BFB30FF0075
:100768007F088705D9017F30FF007F088605DB01F8
:10077800DD01CE2B03305D06031DC32BC42BCE2B0E
:100788000030A700A80067080A128A11F2260A1288
:100798008A117D2B6400392B0A128A1112288312C0
:1007A8000313AA002A08033E8400083083130002BA
:1007B8000318DF2BE02B692C2A088400073000027D
:1007C8000318E72BE82B692C2A08023E8400023024
:1007D80000020318F02BF12B692C2A0A8400103030
:1007E8000002031CF82BF92BFA2B692C2A0A840027
:1007F8000008A6002A0884000008A7000230031099
:10080800A70CFF3E031D032C2708A8000630031081
:10081800A80DFF3E031D0B2C2A08023E8400000889
:10082800A90006300310A90DFF3E031D162C031066
:10083800290D28042604831603139F00831203132B
:100848002A08043E8400000803192B2C2C2C362C73
:100858000A128A1582270A128A110A128A157A2719
:100868000A128A11831203132A08840083130008CA
:100878000439A60006300310A60DFF3E031D3F2CC9
:100888002A08033E84000008A70002300310A70DC1
:10089800FF3E031D4A2C0310270D260401389F0034
:1008A8002A08043E8400000803195B2C5C2C692C80
:1008B8002A08053E840000080319632C642C692C5F
:1008C8000A128A157E270A128A1108008312031356
:1008D800AC010A128A159A270A128A118312031385
:1008E8002808AA002708A90007300310AA0CA90C99
:1008F800FF3E031D792C29080239A0380A128A11F3
:10090800D9270A128A11FF007F0883120313AC0744
:1009180027080A128A11D9270A128A11FF007F08AC
:1009280083120313AC070A128A1591270A128A1137
:10093800831203132808AA002708A9000730031008
:10094800AA0CA90CFF3E031DA32C29080239A138C3
:100958000A128A11D9270A128A11FF007F08831206
:100968000313AC070A128A119A270A128A11FF0088
:100978007F0883120313AB000A128A15A3270A12F1
:100988008A11831203132C08031DCB2CCC2CD42CD6
:100998002B08A900AA012908A7002A08A800D82C12
:1009A800FF30A700FF30A8000800043083160313A7
:1009B800810083120313810105308316031381001C
:1009C80064003D308400831203135E0883138000A3
:1009D800840A5F088000840A60088000840A61082D
:1009E8008000840A62088000840A6308800043301B
:1009F8008400A030B9000408BA000930BB003908E7
:100A0800840083130008BC00B90A3A0884003C0833
:100A18008000BA0ABB0B032DDB30FF007F08870577
:100A2800DB30FF007F08831603138705861506163B
:100A38008616FF3085007F30FF007F0886057F30EF
:100A4800FF007F0883120313860543300A128A11B8
:100A580076220A128A113D300A128A11D3230A1209
:100A68008A110A128A15DD270A128A110A128A11B6
:100A7800BA270A128A110B178B1708000030831245
:100A88000313B2000030B1000030B0000030AF00F6
:100A980029082804270426040319532D542DA12DB1
:100AA800B301B30A642D0130AE000310A60DA70DE3
:100AB800A80DA90DAE0B592D0130FF007F08B30713
:100AC800A91F672D682D572D0130AE000310AF0DFB
:100AD800B00DB10DB20DAE0B6A2D29082D02031D04
:100AE8007F2D28082C02031D7F2D27082B02031DAC
:100AF8007F2D26082A02031C822D832D922D26087D
:100B0800AA022708031C270FAB022808031C280F7A
:100B1800AC022908031C290FAD022F140130031061
:100B2800A90CA80CA70CA60CFF3E031D932D0130A1
:100B3800B302031DA02DA12D682D3208A90031088C
:100B4800A8003008A7002F08A6000800F501F11F2B
:100B5800AE2DAF2DB62DF009F109F00A0319F10AEF
:100B6800F501F50AF31FB92DBA2DC32DF209F309C2
:100B7800F20A0319F30A0130FF007F08F506F601AF
:100B8800F701700871040319CA2DCB2D022EF40148
:100B9800F40AD92D01300310F00DF10DFF3E031DAD
:100BA800CF2D0130FF007F08F407F11FDC2DDD2D6C
:100BB800CE2D01300310F60DF70DFF3E031DDE2D7F
:100BC80071087302031DEA2D70087202031CED2DD3
:100BD800EE2DF52D7008F2027108031CF303F302E1
:100BE800761401300310F10CF00CFF3E031DF62DB6
:100BF8000130F402031D012E022EDD2D75080319A4
:100C0800062E072E0C2EF609F709F60A0319F70A1D
:100C18007708F1007608F0000800F501F31F152E9B
:100C2800162E1D2EF209F309F20A0319F30AF5012B
:100C3800F50AF11F202E212E262EF009F109F00ABF
:100C48000319F10A7008710403192B2E2C2E5B2E40
:100C5800F401F40A3A2E01300310F00DF10DFF3EB5
:100C6800031D302E0130FF007F08F407F11F3D2ED1
:100C78003E2E2F2E71087302031D442E7008720237
:100C8800031C472E482E4E2E7008F2027108031CD2
:100C9800F303F30201300310F10CF00CFF3E031DC7
:100CA8004F2E0130F402031D5A2E5B2E3E2E75087E
:100CB80003195F2E602E652EF209F309F20A031953
:100CC800F30A7308F1007208F00008008312031396
:100CD8005C03031D702E712EA52E5B03031D752E5C
:100CE800762EA52E5808031D7A2E7B2E8D2E85165E
:100CF800EF30FF007F08850566080F39013E840044
:100D08000A128A11EF270A128A118800D801D80A14
:100D1800AD2EDF30FF007F08850505166608F00058
:100D280004300310F00CFF3E031D952E7008013EA1
:100D380084000A128A11EF270A128A118800D80142
:100D4800AD2EDF30FF007F088505EF30FF007F08FC
:100D580085050800F401F501700871040319B52E22
:100D6800B62EED2EF601F60AC42E01300310F00D52
:100D7800F10DFF3E031DBA2E0130FF007F08F60774
:100D8800F11FC72EC82EB92E01300310F40DF50D32
:100D9800FF3E031DC92E71087302031DD52E70086E
:100DA8007202031CD82ED92EE02E7008F2027108A8
:100DB800031CF303F302741401300310F10CF00C5C
:100DC800FF3E031DE12E0130F602031DEC2EED2E31
:100DD800C82E7508F1007408F00008008312031388
:100DE800AB00AC010A128A159A270A128A118312DB
:100DF80003132808AA002708A90007300310AA0C23
:100E0800A90CFF3E031D022F29080239A0380A1237
:100E18008A11D9270A128A11FF007F088312031347
:100E2800AC0727080A128A11D9270A128A11FF006B
:100E38007F0883120313AC072B080A128A11D927DB
:100E48000A128A11FF007F0883120313AC070A12E3
:100E58008A15A3270A128A1108008C1C342F352FF3
:100E6800412F0A128A116A260A128A11FD30FF00E0
:100E78007F08831203138C055C2F0C1C442F452F0D
:100E88004F2FFE30FF007F088C050A128A113C2084
:100E98000A128A115C2F0C1F522F532F5C2FBF3060
:100EA800FF007F088C050A128A1164210A128A1130
:100EB800831203132508FF0024088A0023088400EE
:100EC800220E8300FE0E7E0E0900FD000A30F0009F
:100ED8000030F1007D08F800F9017808F20079087F
:100EE800F3000A128A11AA250A128A117008FA0058
:100EF80004300310FA0DFF3E031D7D2F0A30F00069
:100F08000030F1007D08FB00FC017B08F2007C0842
:100F1800F3000A128A1111260A128A1170087A043B
:100F2800FF007F0883120313E60008000A128A15DF
:100F3800C0270A128A118316031391150A128A15FB
:100F4800C0270A128A11831203131308FF007F08AF
:100F5800A6000A128A15C0270A128A1183160313DB
:100F6800911611168312031326080800831603131B
:100F78008801DF30FF007F088505EF30FF007F081C
:100F88008505FB30FF007F08831203139205DF30CD
:100F9800FF007F088505EF30FF007F0885050A12EE
:100FA8008A15CD270A128A11080083120313A60096
:100FB8000A128A15C0270A128A11831203132608F7
:100FC800930083160313111FEA2FEB2FED2F013027
:100FD800EE2F0030080007308A000408840A8207D0
:100FE80000343F3406345B344F3466346D347D341A
:060FF80007347F346F3462
:101EEC00831203131F150800831603130C17080025
:101EFC00831203131F150800BF30FF007F088312E5
:101F0C0003138C05080064008001840A040603197D
:101F1C00003404068A2F0A128A15C0270A128A1561
:101F2C0083160313911408000A128A15C0270A128B
:101F3C008A1583160313111408000A128A15C02778
:101F4C000A128A158316031311150800083400347D
:101F5C0000340034A03486340134003400340234AC
:101F6C00023401340234013400342334003460343C
:101F7C003C340134831603131419C52FC62FC02FFC
:101F8C0011081F39031DCB2FCC2FC02F0800FD309B
:101F9C00FF007F08831203138C05831603138C1424
:101FAC00FF30920027308312031392000800FE309A
:101FBC00FF007F08831203138C05831603130C1484
:101FCC00831203138E018F010D30900008007E08E0
:101FDC008A007F0882000A128A15ED270A128A15D8
:101FEC008000840A04087D0603190034FF0A0319D3
:041FFC00FE0AF12FB9
:02400E007E3FF3
:00000001FF
